:020000040000FA
:100000000C945C000C9479000C9479000C947900A9
:100010000C9479000C9479000C9479000C9479007C
:100020000C9479000C9479000C9479000C9479006C
:100030000C9479000C9479000C9479000C9479005C
:100040000C9440010C9479000C9479000C94790084
:100050000C9479000C9479000C9479000C9479003C
:100060000C9479000C947900000000080002010053
:100070000003040700000000000000000000000072
:10008000250028002B0000000000240027002A0083
:10009000040404040404040402020202020203032E
:1000A0000303030301020408102040800102040836
:1000B000102001020408102011241FBECFEFD8E049
:1000C000DEBFCDBF11E0A0E0B1E0E6E1F4E002C0A8
:1000D00005900D92A03AB107D9F721E0A0EAB1E06E
:1000E00001C01D92A93AB207E1F70E948A010C945F
:1000F00009020C94000090E0FC01EC55FF4F2491A4
:1001000080579F4FFC018491882399F090E0880FDD
:10011000991FFC01EA57FF4FA591B491FC01E458E7
:10012000FF4F859194918FB7F894EC91E22BEC936B
:100130008FBF089590E0FC01E859FF4F2491FC0126
:10014000EC55FF4F3491FC01E057FF4FE491EE2353
:10015000C9F0222339F0233001F1A8F4213019F13C
:10016000223029F1F0E0EE0FFF1FE458FF4FA59178
:10017000B4918FB7F894EC91611126C030953E236D
:100180003C938FBF08952730A9F02830C9F0243060
:1001900049F7809180008F7D03C0809180008F7728
:1001A00080938000DFCF84B58F7784BDDBCF84B5AB
:1001B0008F7DFBCF8091B0008F778093B000D2CF3E
:1001C0008091B0008F7DF9CF3E2BDACF7F928F9256
:1001D0009F92AF92BF92CF92DF92EF92FF920F93D6
:1001E0001F93CF93DF93C0E1D1E08C019BE5892E73
:1001F00099E0992E7880229661E0872D0E949A00DE
:1002000080E0E82E81E0F82E580128E0A20EB11C13
:100210006701F80191918F01F6018081F2E0CF0E24
:10022000D11C60E0913009F061E00E949A000A154B
:100230001B0579F7C4010197F1F760E0872D0E9453
:100240009A00F7018081F2E0EF0EF11C61E00E945C
:100250009A0020E1E21621E0F20699F781E0C0322F
:10026000D80741F6DF91CF911F910F91FF90EF904A
:10027000DF90CF90BF90AF909F908F907F90089528
:100280001F920F920FB60F9211242F933F938F93CB
:100290009F93AF93BF938091A5019091A601A091E8
:1002A000A701B091A8013091A40123E0230F2D37BD
:1002B00058F50196A11DB11D2093A4018093A501BD
:1002C0009093A601A093A701B093A8018091A001EB
:1002D0009091A101A091A201B091A3010196A11D4D
:1002E000B11D8093A0019093A101A093A201B093AE
:1002F000A301BF91AF919F918F913F912F910F904B
:100300000FBE0F901F90189526E8230F0296A11D8F
:10031000B11DD2CF789484B5826084BD84B58160EC
:1003200084BD85B5826085BD85B5816085BD8091C0
:100330006E00816080936E00109281008091810038
:100340008260809381008091810081608093810030
:10035000809180008160809380008091B1008460F2
:100360008093B1008091B00081608093B000809153
:100370007A00846080937A0080917A008260809312
:100380007A0080917A00816080937A0080917A006F
:10039000806880937A001092C100C0E1D1E090E2C1
:1003A000E92E91E0F92E18812296812F0E947B0080
:1003B00060E0812F0E949A00EC16FD06A1F7C0E0D4
:1003C000D1E080E1E82E81E0F82E18812296812F7D
:1003D0000E947B0061E0812F0E949A00EC16FD06CE
:1003E000A1F700E010E0C6E9D0E080E691E00E94CD
:1003F000E6002197D1F7C6E9D0E080E291E00E94C3
:10040000E6002197D1F70115110569F30E9400005C
:10041000EACFF894FFCF0A000B000C000D000E008D
:100420000F00100011000200030004000500060088
:1004300007000800090000000000000000000001A3
:10044000010000010100010101010101010101019F
:100450000101010101010001010101010100000090
:100460000101010100000000000101000000000086
:100470000000000000000000010101010000000177
:100480000000000001000100010000010001010066
:100490000000000000010100010000010001010056
:1004A0000001010000010001000000000100000047
:0604B00001010101000042
:107E0000112484B714BE81FFF0D085E080938100F7
:107E100082E08093C00088E18093C10086E0809377
:107E2000C20080E18093C4008EE0C9D0259A86E02C
:107E300020E33CEF91E0309385002093840096BBD3
:107E4000B09BFECF1D9AA8958150A9F7CC24DD24C4
:107E500088248394B5E0AB2EA1E19A2EF3E0BF2EE7
:107E6000A2D0813461F49FD0082FAFD0023811F036
:107E7000013811F484E001C083E08DD089C08234E0
:107E800011F484E103C0853419F485E0A6D080C0E4
:107E9000853579F488D0E82EFF2485D0082F10E0AE
:107EA000102F00270E291F29000F111F8ED06801E7
:107EB0006FC0863521F484E090D080E0DECF843638
:107EC00009F040C070D06FD0082F6DD080E0C81688
:107ED00080E7D80618F4F601B7BEE895C0E0D1E017
:107EE00062D089930C17E1F7F0E0CF16F0E7DF06D8
:107EF00018F0F601B7BEE89568D007B600FCFDCFD4
:107F0000A601A0E0B1E02C9130E011968C91119780
:107F100090E0982F8827822B932B1296FA010C0160
:107F200087BEE89511244E5F5F4FF1E0A038BF0790
:107F300051F7F601A7BEE89507B600FCFDCF97BE46
:107F4000E89526C08437B1F42ED02DD0F82E2BD052
:107F50003CD0F601EF2C8F010F5F1F4F84911BD097
:107F6000EA94F801C1F70894C11CD11CFA94CF0C13
:107F7000D11C0EC0853739F428D08EE10CD085E9AC
:107F80000AD08FE07ACF813511F488E018D01DD067
:107F900080E101D065CF982F8091C00085FFFCCF94
:107FA0009093C60008958091C00087FFFCCF809118
:107FB000C00084FD01C0A8958091C6000895E0E648
:107FC000F0E098E1908380830895EDDF803219F02E
:107FD00088E0F5DFFFCF84E1DECF1F93182FE3DFCA
:107FE0001150E9F7F2DF1F91089580E0E8DFEE27F6
:047FF000FF270994CA
:027FFE00040479
:00000001FF
