:100000000C945D000C9485000C9485000C94850084
:100010000C9485000C9485000C9485000C9485004C
:100020000C9485000C9485000C9485000C9485003C
:100030000C9485000C9485000C9485000C9485002C
:100040000C94B7010C9485000C9485000C948500E9
:100050000C9485000C9485000C9485000C9485000C
:100060000C9485000C94850000000008000201003B
:100070000003040700000000000000000000000072
:10008000250028002B0000000000240027002A0083
:10009000040404040404040402020202020203032E
:1000A0000303030301020408102040800102040836
:1000B0001020010204081020540411241FBECFEFA9
:1000C000D8E0DEBFCDBF11E0A0E0B1E0E2E9F9E0A9
:1000D00002C005900D92AA35B107D9F721E0AAE533
:1000E000B1E001C01D92AE38B207E1F710E0CDE5F6
:1000F000D0E004C02197FE010E94C104CC35D10795
:10010000C9F70E9401020C94C7040C94000090E00F
:10011000FC01EC55FF4F249180579F4FFC018491C7
:10012000882399F090E0880F991FFC01EA57FF4F50
:10013000A591B491FC01E458FF4F859194918FB73C
:10014000F894EC91E22BEC938FBF089590E0FC01C2
:10015000E859FF4F2491FC01EC55FF4F3491FC010D
:10016000E057FF4FE491EE23C9F0222339F023300A
:1001700001F1A8F4213019F1223029F1F0E0EE0F5D
:10018000FF1FE458FF4FA591B4918FB7F894EC91FD
:10019000611126C030953E233C938FBF08952730D0
:1001A000A9F02830C9F0243049F7809180008F7D74
:1001B00003C0809180008F7780938000DFCF84B56B
:1001C0008F7784BDDBCF84B58F7DFBCF8091B0006E
:1001D0008F778093B000D2CF8091B0008F7DF9CF20
:1001E0003E2BDACFCF93DF93C82FD0E080917B01F5
:1001F000D81758F4ED2FF0E0ED59FE4F60916601ED
:1002000087850E94A600DF5FF1CFEC2FF0E0ED596B
:10021000FE4F609164018781DF91CF910C94A6001D
:10022000CF93DF93C82FD0E080917A01D81758F48C
:10023000ED2FF0E0ED59FE4F6091640187810E943F
:10024000A600DF5FF1CFEC2FF0E0ED59FE4F60919B
:1002500066018785DF91CF910C94A6001F93CF9301
:10026000DF93C82FD0E0CD59DE4F609163018F81BD
:100270000E94A60010E06A9680917B011817A8F4EE
:10028000E12FF0E0888190E0012E02C095958795DE
:100290000A94E2F780FF07C0ED59FE4F60916501B7
:1002A00087850E94A6001F5FE7CFDF91CF911F9146
:1002B00008950F931F93CF93C82FE82FF0E0ED59C7
:1002C000FE4F6091650187850E94A60001E010E065
:1002D00002C0000F111FCA95E2F7C0E080917A01B9
:1002E000C81788F4EC2FF0E0ED59FE4F828D90E0B6
:1002F00080239123892B29F06091630187810E94DB
:10030000A600CF5FEBCFCF911F910F910895823060
:10031000910538F0880F991F880F991F059701974D
:10032000F1F708953FB7F89480915F0190916001D3
:10033000A0916101B091620126B5A89B05C02F3F35
:1003400019F00196A11DB11D3FBFBA2FA92F982FFB
:100350008827BC01CD01620F711D811D911D42E0F6
:10036000660F771F881F991F4A95D1F708951F922E
:100370000F920FB60F9211242F933F938F939F9359
:10038000AF93BF9380915B0190915C01A0915D015F
:10039000B0915E0130915A0123E0230F2D3758F5BB
:1003A0000196A11DB11D20935A0180935B0190938A
:1003B0005C01A0935D01B0935E0180915F0190911B
:1003C0006001A0916101B09162010196A11DB11D72
:1003D00080935F0190936001A0936101B0936201EB
:1003E000BF91AF919F918F913F912F910F900FBE31
:1003F0000F901F90189526E8230F0296A11DB11D9E
:10040000D2CFCF93DF93CDB7DEB762970FB6F89414
:10041000DEBF0FBECDBF789484B5826084BD84B545
:10042000816084BD85B5826085BD85B5816085BDEF
:1004300080916E00816080936E00109281008091A7
:10044000810082608093810080918100816080932F
:100450008100809180008160809380008091B10054
:1004600084608093B1008091B00081608093B0007F
:1004700080917A00846080937A0080917A00826013
:1004800080937A0080917A00816080937A008091D5
:100490007A00806880937A001092C10088E0E0E0E2
:1004A000F1E08E010F5F1F4FD80101900D928A95E8
:1004B000E1F781E080936701109268011092690171
:1004C00080937A0198E090937B011092630180936E
:1004D00065018093640110926601F801A2E7B1E022
:1004E000CE01099621912D938E179F07D9F7898503
:1004F00080936A01F12C80917A01F81690F48F2D87
:1005000090E09C012D593E4F6901F90187810E94BD
:10051000870060916401F60187810E94A600F39430
:10052000EACFF12C80917B01F81650F090917A017E
:10053000EDE7F1E080E09817A9F011928F5FFBCF13
:100540008F2D90E09C012D593E4F6901F90187855F
:100550000E94870060916601F60187850E94A600CF
:10056000F394E0CF80E00E94100180E00E94F2004E
:1005700088E097E090938A018093890110928C0122
:1005800010928B0110928D01C12CD12C7601260185
:100590003701F0917A01FA872F2F30E03C872B87C3
:1005A000220F331F220F331F3E872D87F901EF5C87
:1005B000FE4F80819181A281B381C816D906EA06D7
:1005C000FB06CCF0F8018E2F801B4A84841508F4BA
:1005D00061C08DE791E0D8012A2F201B5A84251590
:1005E00008F078C0ED91F0E0E85FFE4F2081FC015B
:1005F0002193CF01F1CFAD85BE85A35DBE4F8D9117
:100600009D910D90BC91A02D21E030E040E050E0A4
:10061000281B390B4A0B5B0BDA01C901C816D90636
:10062000EA06FB067CF21F01188B0F872CEF4B8527
:100630005C852403C001259F900D11249A8B898B22
:1006400021E331E02215330549F134E0231A310862
:10065000E989FA89E20DF31D4D855E85E40FF51FEA
:1006600080809180A280B380C301B201A501940172
:100670000E946604EF85F8892193F88BEF87A22FFB
:10068000B0E0A50194010E948504461A570A680A41
:10069000790AD6CF25E2522E519295CF80916901E9
:1006A000811197CF2B843C84F1E02F1A3108E82F79
:1006B000F0E0E215F3050CF08CCFE00FF11F908114
:1006C000911105C094E2492E40828F5FF0CF9A309D
:1006D000E0F77FCF809168018111ABC00E94920149
:1006E00030918D018090850190908601A0908701C6
:1006F000B09088012B013C01481859086A087B0812
:100700005301420140908B0150908C01311104C083
:100710004090890150908A01052C000C66087708EA
:1007200084149504A604B70474F160938501709352
:100730008601809387019093880180917C012091AC
:100740006701211159C0332391F010928D018091DE
:100750007C018F5F80937C0190917B01891710F061
:1007600010927C0180917C010E9459010CC00E9472
:10077000100180918B0190918C01892B41F35524BC
:10078000539450928D010E9492014B015C0188EEBE
:10079000482E83E0582E612C712C0E94920168191A
:1007A00079098A099B09683E734081059105A8F380
:1007B00021E0421A51086108710838EE830E33E0D7
:1007C000931EA11CB11C411451046104710429F74A
:1007D0005FEFC51AD50AE50AF50A8AE0C816D10402
:1007E000E104F10409F0D3CEE0E0F0E0EF2B09F4EE
:1007F000CBCE0E940000C8CE332391F010928D0121
:1008000080917C018F5F80937C0190917A018917A0
:1008100010F010927C0180917C010E942E01B3CFD8
:100820000E94F20080918B0190918C01892B41F301
:10083000A6CF80916701B12C81111BC080917B01F3
:10084000B81608F0A0CF8B2D0E9459018091890124
:1008500090918A010E9487018B2D0E941001809146
:100860008B0190918C01009711F00E948701B39445
:10087000E5CF80917A01B81608F085CF8B2D0E94C4
:100880002E018091890190918A010E9487018B2D10
:100890000E94F20080918B0190918C01009711F0E1
:1008A0000E948701B394E5CFE3E6F1E080ED97E0A5
:1008B00097A386A311A610A612A6178A118E12A2BC
:1008C00013A214A215A2148215820895052E97FB77
:1008D0001EF400940E947D0457FD07D00E949004EE
:1008E00007FC03D04EF40C947D0450954095309550
:1008F00021953F4F4F4F5F4F08959095809570958C
:1009000061957F4F8F4F9F4F08950E94B204A59F1E
:10091000900DB49F900DA49F800D911D11240895FA
:10092000A1E21A2EAA1BBB1BFD010DC0AA1FBB1FF3
:10093000EE1FFF1FA217B307E407F50720F0A21B65
:10094000B30BE40BF50B661F771F881F991F1A94D2
:1009500069F760957095809590959B01AC01BD01FC
:10096000CF010895A29FB001B39FC001A39F700D56
:10097000811D1124911DB29F700D811D1124911DA7
:100980000895EE0FFF1F0590F491E02D0994F8945F
:02099000FFCF97
:1009920009080706050403023F065B4F666D7D07E3
:1009A2007F6F777C395E79713D76300E76380054F0
:1009B2003F7367506D783E3E00766E5B0040806309
:1009C20008010000000A00000064000000E80300C3
:1009D2000010270000A086010040420F0080969878
:0A09E2000000E1F50500CA9A3B0091
:00000001FF
